:020000040800F2
:10000000C007002035020008CF250008E9220008BB
:10001000CD250008510500082B2B0008000000002A
:10002000000000000000000000000000D3250008D0
:100030005305000800000000D1250008D525000860
:100040004F0200084F0200084F0200084F0200084C
:100050004F0200084F0200084F0200084F0200083C
:100060004F0200084F0200084F0200084F0200082C
:100070004F0200084F0200084F0200084F0200081C
:100080004F0200084F0200084F0200084F0200080C
:100090004F0200084F0200084F0200084F020008FC
:1000A0004F0200084F0200084F0200084F020008EC
:1000B0004F0200084F0200084F0200084F020008DC
:1000C0004F0200084F0200084F0200084F020008CC
:1000D0004F0200084F0200084F0200084F020008BC
:1000E0004F0200084F0200084F0200084F020008AC
:1000F0004F0200084F0200084F0200084F0200089C
:100100004F02000800000000000000004F0200083D
:100110004F0200084F0200084F0200084F0200087B
:100120004F0200084F0200084F0200084F0200086B
:100130004F0200084F02000800000000000000000D
:100140004F0200084F0200084F02000800000000A4
:10015000000000000000000000000000000000009F
:100160004F0200084F0200084F0200084F0200082B
:100170004F0200084F0200084F0200084F0200081B
:100180004F0200084F0200080000000000000000BD
:100190004F02000800F002F800F03CF80AA090E8D6
:1001A000000C82448344AAF10107DA4501D100F032
:1001B00031F8AFF2090EBAE80F0013F0010F18BFC3
:1001C000FB1A43F001031847202B0000402B0000CE
:1001D000103A24BF78C878C1FAD8520724BF30C873
:1001E00030C144BF04680C60704700000023002445
:1001F00000250026103A28BF78C1FBD8520728BF37
:1002000030C148BF0B6070471FB502F04FFD1FBDE6
:1002100010B510BD00F0CFF81146FFF7F5FF02F062
:1002200095FC00F0EDF803B4FFF7F2FF03BC00F01B
:10023000F5F800000948804709480047FEE7FEE757
:10024000FEE7FEE7FEE7FEE7FEE7FEE7FEE7FEE786
:1002500004480549054A064B70470000612600081E
:1002600095010008C0010020C0070020C003002045
:10027000C003002053EA020C00F069802DE9F04B26
:100280004FF00006002B1FBFB3FA83F503FA05F405
:1002900024FA05F65E4012BF1643B2FA82F502FA5E
:1002A00005F4C5F120051EBF22FA05FC44EA0C0442
:1002B000203556EA044C4FEA144418BF641C4FF032
:1002C00000084FF00009904271EB030C39D300296C
:1002D00019BFB1FA81F701FA07F6B0FA80F700FA10
:1002E00007F6C7F120071EBF20FA07FC46EA0C06F6
:1002F0002037B6FBF4FCA7EB0507103F07F01F0BF8
:10030000CBF120060CFA0BFB2CFA06F644BFB346E1
:100310000026202FA4BF5E464FF0000B5BEA060CC0
:1003200008BF4FF0010B19EB0B09ABFB027C48EB4C
:100330000608C01B06FB02CC0BFB03CC71EB0C01C7
:10034000C1E70B46024641464846BDE8F08B13B56F
:100350004FF000004FF00001AFF30080BDE81C40FB
:1003600070474FF0000200B5134694469646203978
:1003700022BFA0E80C50A0E80C50B1F12001BFF45E
:10038000F7AF090728BFA0E80C5048BF0CC05DF8C4
:1003900004EB890028BF40F8042B08BF704748BF12
:1003A00020F8022B11F0804F18BF00F8012B704786
:1003B000704770477047754600F02CF8AE46050050
:1003C0006946534620F00700854618B020B5FFF770
:1003D0003FFFBDE820404FF000064FF000074FF010
:1003E00000084FF0000B21F00701AC46ACE8C00953
:1003F000ACE8C009ACE8C009ACE8C0098D4670475C
:1004000010B50446AFF300802046BDE81040FFF76A
:100410000ABF0000004870475C0100200149182015
:10042000ABBEFEE7260002007047000070B5044630
:100430000068816801F0030101292AD10168C90718
:1004400027D0816801F00D01012914D1816841F0A4
:100450000201816021680320086000F0F7FE054674
:1004600013E000BF00F0F2FE401B02280DD9206807
:100470008068C00709D0206C40F010002064606CD8
:1004800040F001006064012070BD20688068C007F2
:10049000E8D1002070BD000070B504460068816896
:1004A00001F00301012902D10168C90725D1816842
:1004B000134A114212D1816841F00101816000F0BC
:1004C000C5FE054614E000BF00F0C0FE401B022838
:1004D0000ED920680068C043C00709D0206C40F0E6
:1004E00010002064606C40F001006064012070BD69
:1004F00020680068C043C007E6D1002070BD00003E
:100500003F00008010B50E4C4FF47A71012804D0E2
:10051000022807D003280AD010E00A4800F01EFC89
:10052000084808E0084800F019FC074803E00748BD
:1005300000F014FC054800F065FA2080208810BD0A
:10054000000000202000002070000020C0000020DB
:10055000FEE7704772B6FEE7F0B5002302684FF081
:10056000A04C3E4C94B01F46624501D100940DE072
:10057000A24202D1CDF800C008E0394D394EAA425E
:1005800001D1009602E0B24214D1009590F83C509F
:10059000012D12D0012580F83C5095686D0753D489
:1005A000009DAD686D074FD4624501D0A24206D1CF
:1005B0002D4A05E0012014B0F0BD0220FBE72B4AD4
:1005C0000D6840F61F7425B3956890F8306025F4E7
:1005D000604545EA46354E68354395600568AE6826
:1005E00006F00306012E02D12D68ED0731D1009DE2
:1005F000AD6805F00305012D03D1009D2D68ED07C1
:1006000027D10D6889680D439168A1430D4395601A
:100610001FE0916821F46041916001688D6805F0E8
:100620000305012D02D10968C90712D10099896813
:1006300001F00301012903D100990968C90708D114
:100640009168A143916004E0016C41F020010164D4
:10065000012380F83C701846ADE70000000100500F
:100660000004005000050050000300500007005037
:10067000F0B594B00024009490F83C202546012A5F
:1006800019D0012780F83C7003689A6852077CD41F
:100690004A681F26052A11D2D3F830C002EB420265
:1006A000520096402CEA060C0E6896404CEA060C66
:1006B000C3F830C035E0022014B0F0BD0A2A0FD2D2
:1006C000D3F834C0521F02EB4202520096402CEA8B
:1006D000060C0E6896404CEA060CC3F834C020E0C5
:1006E0000F2A0FD2D3F838C00A3A02EB4202520066
:1006F00096402CEA060C0E6896404CEA060CC3F8AD
:1007000038C00EE0D3F83CC00F3A02EB4202520070
:1007100096402CEA060C0E6896404CEA060CC3F88C
:100720003CC00268936813F00C0F4FF0070374D1BC
:10073000D1F800E0BEF10A0F10D39669AEF10A0EAF
:100740000EEB4E0C03FA0CFE26EA0E06D1F808E07A
:100750000EFA0CFE46EA0E0696610FE0D2F814C0BF
:100760000EEB4E0603FA06FE2CEA0E0CD1F808E05A
:100770000EFA06FE4CEA0E0CC2F814C002684E696E
:10078000D2F80CC0CCF3C10C00E0FDE04FEA4C0CF9
:1007900006FA0CF6D1F810E0DFF848C2BEF1010FFE
:1007A00042D0BEF1020F4DD0BEF1030F58D0BEF1C2
:1007B000040F63D0166E91F800C006F0F846B6EB51
:1007C0008C6F03D1166E26F0004616660268566ED0
:1007D00091F800C006F0F846B6EB8C6F03D1566E68
:1007E00026F0004656660268966E91F800C006F044
:1007F000F846B6EB8C6F03D1966E26F000469666EF
:100800000268D66E91F800C006F0F846B6EB8C6F21
:1008100003D1D66E26F00046D6660268966806F0CA
:100820000306012E3AD136E0D2F860E00EEA0C0E53
:1008300091F800C046EA8C664EEA060E4EF000467D
:100840001666EAE7D2F864E00EEA0C0E91F800C0F2
:1008500046EA8C664EEA060E4EF000465666DCE727
:10086000D2F868E00EEA0C0E91F800C046EA8C66F9
:100870004EEA060E4EF000469666CEE7D2F86CE0E1
:100880000EEA0C0E91F800C046EA8C664EEA060E9F
:100890004EF00046C0E71668F6077AD1CE68012E02
:1008A00006D052F8B03F0E78B740BB43136021E04A
:1008B00052F8B06F91F800C007FA0CF73E4316608B
:1008C0000A680A2A0BD30668B769093A02EB4202A2
:1008D00093409F438B6893401F43B7610AE00768CA
:1008E0007E69521C02EB420293409E438B68934008
:1008F0001E437E6103684FF0A0473B4EBB4201D0D0
:10090000B34201D1394A00E0394A0968102904D0BC
:10091000112907D012290AD03BE0D2F808C04FEACB
:100920000C2C08E0D2F808C04FEACC1C03E0D2F847
:1009300008C04FEA4C2CBCF1000F2ADBBB420DD0A3
:10094000B34201D100970CE02A4EDFF8ACC0B342AD
:1009500002D1CDF800C004E0634501D1009600E06B
:1009600000959E6806F00306012E02D11E68F60768
:100970000AD1009E8EB1B66806F00306012E0CD196
:10098000009E3668F60708D0016C41F02001016432
:10099000012480F83C5020468EE6102908D0112909
:1009A0001AD01229F5D1916841F480019160F0E7E5
:1009B000BB42EED1916841F4000191600F49104AA9
:1009C0000968B1FBF2F101EB8101490000E0491E29
:1009D00000910029FBD1DCE7BB42DAD1916841F0FC
:1009E0008071E3E700F0FF83000100500003005036
:1009F0000007005000040050000500501C000020BB
:100A000040420F000068006C70470000F0B54FF0E6
:100A1000000695B0040037463546009605D0206C98
:100A2000C00648D4206C18B133E0012015B0F0BDE9
:100A30006564E564A56484F83C50204600F022F922
:100A400020688068C00024D42046FFF7EFFC0646EB
:100A5000206CC0061DD4E6B9206C20F4885040F00C
:100A6000020020642068816821F040518160206884
:100A7000816841F08051816079487A490068B0FB13
:100A8000F1F000EB8000400000E0401E00900028E4
:100A9000FBD120688168C90002D5806880000AD532
:100AA000206C20F0020040F010002064606C40F0E8
:100AB000010060640126206CC00672D4002E70D143
:100AC0002068816849076CD4216C21F4807141F061
:100AD000020121644FF0A04E634B704501D0984253
:100AE00001D1624A00E0624ADFF888C1624970457C
:100AF00001D100930EE0984202D1CDF800E009E068
:100B0000884202D1CDF800C004E0604501D10091D7
:100B100000E00095836803F00303012B02D1006815
:100B2000C00710D1009840B1806800F00300012890
:100B300003D100980068C00705D19068636820F46D
:100B4000403018439060D4E902201043626B012AC0
:100B500002D04FF4805300E00023627E43EA423328
:100B6000184394F820303843012B0AD1D2B1226CBB
:100B700022F0020242F020022264626C42F0010282
:100B80006264A26A012A37D023688B4201D0634590
:100B90002DD14FF430714FF4E0778A420AD13A46B2
:100BA00027E053E0A28C354B03EB4242024342F470
:100BB0008030E6E74FF480739A4201D10A4618E08C
:100BC000BA4201D11A4614E0B2F58A5F06D0B2F5F6
:100BD000845F06D0B2F5865F06D00AE04FF47072EB
:100BE00007E04FF4A07204E04FF4C07201E022F479
:100BF00080520243E06A104321688A6812F00C0FA9
:100C00000BD1CA6844F202039A43CA60217E94F869
:100C10003020890341EA420108432268D168184B19
:100C200019400143D160206901282068016B21F03F
:100C30000F0102D1E269521E114301636564206C09
:100C400020F0020040F00100206406E0206C20F05B
:100C5000020040F01000206401263046E6E6000065
:100C60001C00002040420F00000100500003005013
:100C70000007005000050050000400500000FEFF77
:100C800007C0F0FFF0B587B0044614216846FFF7AF
:100C900068FB2D4B266800241A6803252B49521C3B
:100CA0004FF09040B6F1A04F06D0294FBE4231D14F
:100CB0001A60012A15D01CE01A60012A07D14A697E
:100CC00042F080524A614A6902F0805205924A69B4
:100CD00042F400324A61496901F400310591012171
:100CE00010E04A6942F080524A614A6902F080523B
:100CF00005924A6942F400324A61496901F40031BF
:100D000005911021CDE900150294694600F070F9B3
:100D100007B0F0BD0F488642FAD1486940F0005054
:100D20004861486900F000500590486940F480200F
:100D300048614869694600F4802005900220CDE9A9
:100D4000000502940448E1E70C0000200010024076
:100D50000001005000040050000400482DE9F04755
:100D60000E4604464169414A00684FF000084FF0C2
:100D7000A043082905D0984201D0904203D13C49B4
:100D800002E0082514E03B498D68ED060CD0896827
:100D900001F4404159B1206C40F02000206484F8F7
:100DA0003C800120BDE8F087C168C907F2E70C2547
:100DB000984201D0904202D1D3F8081302E02D49A5
:100DC0000831096811F01F0F04D0984202D02A4957
:100DD000884201D1C76803E0904200D11946CF682C
:100DE00000F034FA814614E0701C12D02EB100F0ED
:100DF0002DFAA0EB0900B0420BD920680068284208
:100E000007D1206C40F00400206484F83C8003206B
:100E1000C8E7206800682842E6D0206C40F40070E3
:100E200020642068C16811F4406F1AD1B90418D445
:100E30000168090715D581684907216C0AD421F496
:100E400080712164216CC9040BD4216C41F0010133
:100E5000216406E041F020012164616C41F0010150
:100E60006164790400D4056000209BE70001005014
:100E70000003005000070050000400502DE9F0412D
:100E8000044600688068400770D494F83C0001284C
:100E90000CD0012084F83C002046FFF7FDFA030047
:100EA0004FF0000605D084F83C6086E00220BDE8E3
:100EB000F081206C40F60161884340F4807020642A
:100EC00020684FF0A0413E4A3E4D884201D09042FA
:100ED00002D1D1F8087300E02F6817F01F0F3A4FC6
:100EE00003D0884201D0B8420BD1D4F840C02CF4D2
:100EF000801CC4F840C0D0F80CC05FEA8C1C14D42D
:100F00001BE0D4F840C04CF4801CC4F840C09042B0
:100F100002D1D1F80CC005E0DFF8ACC00CF10C0C2C
:100F2000DCF800C01CF0007F07D0D4F840C02CF4DF
:100F3000005C4CF4805CC4F840C0D4F840C05FEA68
:100F4000CC4C06D5D4F844C02CF0060CC4F844C0F0
:100F500000E0666484F83C601C26066020688842D5
:100F600001D0904203D1D1F8084301E024E02C687D
:100F700014F01F0F1BD0884201D0904202D1D1F84B
:100F8000084300E02C6804F01F04052C0FD08842B1
:100F900001D0904202D1D1F8082300E02A6802F083
:100FA0001F02092A03D0884201D0B84205D18168C6
:100FB00041F00401816000E00223184677E7000059
:100FC00000010050080700500004005070B50446AE
:100FD00000F03CF90546601C02D004480078044447
:100FE00000F034F9401BA042FAD370BD100000207D
:100FF0002DE9F04FDFF82492002201260325A9F104
:10100000040B85B00F2709F1040AABF1040EFCE0D4
:1010100006FA02F423407CD091F804C00CF0030CD3
:10102000BCF1010F02D0BCF1020F26D1D0F808C0EC
:10103000CDF800C04FEA420C05FA0CF8CDF810C00C
:10104000DDF800C02CEA080CCDF800C0D1F80C8007
:10105000DDF810C008FA0CF8DDF800C048EA0C080A
:10106000C0F80880D0F804C02CEA040C0C79C4F352
:101070000014944044EA0C0444600C79E443A4074F
:101080000ED0C4684FEA420805FA08FC24EA0C04B2
:10109000D1F808C00CFA08FC4CEA040CC0F80CC0EB
:1010A0000C7904F00304022C15D1D40800EB84045D
:1010B0000294246A4FEA427C4FEADC6807FA08FC93
:1010C00024EA0C04D1F810C00CFA08FC4CEA040C19
:1010D000029CC4F820C004684FEA420805FA08FCE4
:1010E00024EA0C0491F804C00CF0030C0CFA08FC80
:1010F0004CEA040CC0F800C04C6814F4403F08D01F
:10110000474CD4F818C04CF0010CC4F818C0A469BE
:1011100000E079E004F001040094424C22F0030C5A
:1011200064440294A4684FEA827C4FEA1C7807FA70
:1011300008FC24EA0C04B0F1904F06D0DFF8E8C0B8
:10114000604505D14FF0010C27E04FF0000C24E082
:10115000DFF8D8C0604502D14FF0020C1DE0DFF887
:10116000D0C0604502D14FF0030C16E0DFF8C4C0D8
:10117000604502D14FF0040C0FE0DFF8BCC06045C1
:1011800002D14FF0050C08E0DFF8B0C0604502D195
:101190004FF0060C01E04FF0070C0CFA08FC4CEA8B
:1011A000040C029CC4F808C0D9F80040CC46D1F821
:1011B00004809C435FEAC82800D51C43CCF800405B
:1011C000DAF80040D446D1F804809C435FEA8828CE
:1011D00000D51C43CCF80040DBF80040DC46D1F8D9
:1011E00004809C435FEA883800D51C43CCF800405B
:1011F000DEF80040F446D1F804809C435FEAC8382A
:1012000000D51C43CCF80040521C0B6833FA02F4A2
:101210007FF4FEAE05B0BDE8F08F00000804014089
:10122000001002400000014000040048000800488F
:10123000000C004800100048001400480018004846
:101240000AB181617047816270470000014880687F
:1012500070470000100000200248816802781144A5
:101260008160704710000020074810B5016841F008
:1012700010010160032000F05FF80F2000F006F875
:1012800000F024F8002010BD0020024070B50D4D84
:1012900004464FF47A712878B1FBF0F00A490968E6
:1012A000B1FBF0F000F04AFD48B9102C07D2002243
:1012B0002146501E00F020F800206C6070BD012017
:1012C00070BD0000100000201C000020094808B577
:1012D000816941F001018161816901F001010091A1
:1012E000C16941F08051C161C06900F08050009037
:1012F00008BD000000100240F0B40E4B1B680C4605
:10130000C3F30223C3F10705042D00D90425191DD9
:10131000072901D2002300E0DB1E012606FA05F1B1
:10132000491E214099409E40761E16403143F0BC34
:1013300001F0FCBB0CED00E0064900F00702086874
:101340004FF6FF03184040EA0220034A10430860AA
:10135000704700000CED00E00000FA052DE9F84FA1
:101360000446006800269F4DC0036ED5E869C000A2
:1013700008D4E86940F08050E861E869012600F08F
:101380008050009098480168C90512D401688046D1
:1013900041F480710160FFF759FF074605E000BF87
:1013A000FFF754FFC01B642835D8D8F80000C005EB
:1013B000F6D5286A10F4407053D0A18801F440712A
:1013C00081424ED0286A4FF4803191FAA1F2B2FAEC
:1013D00082F29700854A4FF00108174420F44070CC
:1013E000C7F8008491FAA1F1B1FA81F102EB810111
:1013F0000023C1F800342862C00732D0FFF726FF6F
:10140000074641F2883A4FF0020907E0FFF71EFF56
:10141000C11B514502D90320BDE8F88F99FAA9F103
:10142000B1FA81F141F040014846B8EB511F01D1BA
:1014300029680CE090FAA0F1B1FA81F141F0400185
:10144000B0EB511F02D1296A01E015E0696A99FAEF
:10145000A9F0B0FA80F000F01F0008FA00F2114283
:10146000D4D0286A616820F44070084328621EB115
:10147000E86920F08050E8612078C00705D0286B2B
:10148000A16820F00300084328632078800705D571
:10149000286BE16820F44030084328632078400737
:1014A00005D5286B216920F4402008432863207863
:1014B000800605D5286BE16920F0100008432863F9
:1014C0002068800305D56868616D20F480000843BA
:1014D00068602078400605D5286B216A20F020003E
:1014E000084328632068400305D5286B616A20F013
:1014F0004000084328632078000705D5286B616900
:1015000020F44010084328632078C00605D5286BD6
:10151000A16920F44000084328632088800505D590
:101520006868216B20F4000008436860207800069A
:1015300005D5E86AA16A20F4F8700843E8622088BB
:10154000C00505D5E86AE16A20F478500843E862EE
:101550002088C00405D5286B616B20F48070084397
:1015600028632088800405D5286B216C20F4007046
:10157000084328632068C00205D5286BA16B20F0C2
:101580008070084328632068800205D5286BE16BD2
:1015900020F00070084328632068400205D5286BBE
:1015A000616C20F48060084328632068000205D540
:1015B000286BA16C20F40060084328632068C001F8
:1015C00005D5286BE16C20F400500843286320689F
:1015D000800105D5286B216D20F400400843286365
:1015E000002019E700100240007000400000424255
:1015F0002DE9F0470F46050069D04A4E306800F0EB
:101600000700B84209D2306820F007003843306044
:10161000306800F00700B84259D12878424C800762
:1016200005D56068A96820F0F0000843606028785C
:10163000C0073DD06968012001290DD0022923D0BF
:101640005FF0020393FAA3F2B2FA82F242F02002B0
:10165000520904D0226803E04FF40033F2E7626AD3
:1016600093FAA3F3B3FA83F303F01F039840024203
:101670002DD0606820F0030008436060FFF7E6FDAE
:10168000804641F288390CE04FF00073DAE700BF82
:10169000FFF7DCFDA0EB0801494502D90320BDE8B6
:1016A000F0876068696800F00C00B0EB810FEFD143
:1016B000306800F00700B8420BD9306820F007000E
:1016C00038433060306800F00700B84201D0012094
:1016D000E5E72878400705D56068E96820F4E06010
:1016E000084360602878000706D56068296920F4FF
:1016F000605040EAC100606000F01EF86168F022AE
:1017000092FAA2F201F0F001B2FA82F2D140074A55
:10171000515CC8400649086006480068FFF7B6FDFE
:101720000020BCE70020024000100240D62C000838
:101730001C000020140000200D4A10B551680D480F
:1017400001F00C03042B11D0082B0FD10A4BC1F36D
:101750008344D26A1C5D02F00F021033C9039A5C05
:1017600000231946FEF786FDA0FB040110BD000012
:101770000010024000127A00B62C00082DE9F84F44
:1017800004007DD02078FA4DC0074FF0010637D015
:1017900068687704C0F38100012819D06868C0F335
:1017A0008100022804D16868C0F3C13002280FD03C
:1017B0006068B0F5803F24D010B1B0F5A02F2AD0DA
:1017C000286820F480302860286820F480201BE0FE
:1017D00097FAA7F0B0FA80F040F02000400901D05D
:1017E000286800E0686A97FAA7F1B1FA81F101F080
:1017F0001F0106FA01F108424ED060680028C0D0EF
:101800004AE0286840F480302860606820B3FFF721
:101810001DFD80460AE0286840F480202860F0E73B
:10182000FFF714FDA0EB0800642873D897FAA7F01F
:10183000B0FA80F040F02000400901D0286800E0B4
:10184000686A97FAA7F1B1FA81F101F01F0106FA6F
:1018500001F10842E4D01FE0FFF7F8FC804605E004
:10186000FFF7F4FCA0EB08006428DED897FAA7F095
:10187000B0FA80F040F02000400902D0286801E072
:10188000B9E0686A97FAA7F1B1FA81F101F01F0196
:1018900006FA01F10842E3D12078DFF8D882800708
:1018A0004FF0000A4FF002075DD568684FF0F80B63
:1018B00010F00C0F15D06868C0F38100022804D125
:1018C0006868C0F3C13001280BD0E068A0B396FA75
:1018D000A6F0B0FA80F048F82060FFF7B7FC814628
:1018E00020E097FAA7F0B0FA80F040F0200040091D
:1018F00001D0286800E0686A97FAA7F1B1FA81F18F
:1019000001F01F0106FA01F1084221D0E068012828
:1019100071D11DE056E100BFFFF798FCA0EB090074
:101920000228A2D897FAA7F0B0FA80F040F0200081
:10193000400902D0286801E016E0686A97FAA7F12A
:10194000B1FA81F101F01F0106FA01F10842E3D07A
:1019500028689BFAABF22169B2FA82F220F0F80013
:1019600091400843286024E096FAA6F1B1FA81F18B
:1019700048F821A0FFF76AFC814605E0FFF766FC06
:10198000A0EB09000228CCD897FAA7F0B0FA80F0B3
:1019900040F02000400901D0286800E0686A97FA0A
:1019A000A7F1B1FA81F101F01F0106FA01F1084235
:1019B000E4D1207800076AD56069A0B396FAA6F052
:1019C000B0FA80F008EB8000C0F88064FFF73EFCBE
:1019D000814605E0FFF73AFCA0EB09000228A0D8F9
:1019E00097FAA7F0B0FA80F040F06000B6EB501F15
:1019F00002D128680CE09DE197FAA7F0B0FA80F0D8
:101A000040F06000B7EB501F01D1286A00E0686A1F
:101A100097FAA7F1B1FA81F101F01F0106FA01F27C
:101A20001042D7D033E0FFE796FAA6F0B0FA80F084
:101A300008EB8000C0F880A4FFF708FC814605E0B1
:101A4000FFF704FCA0EB090002289CD897FAA7F046
:101A5000B0FA80F040F06000B6EB501F01D128686A
:101A60000BE097FAA7F0B0FA80F040F06000B7EB17
:101A7000501F01D1286A00E0686A97FAA7F1B1FA0D
:101A800081F101F01F0106FA01F21042D8D120784D
:101A9000400774D5E8694FF00009C00009D4E8692F
:101AA00040F08050E861E8694FF0010900F0805093
:101AB000009031480168C90512D4016841F4807171
:101AC0000160FFF7C3FB834606E000BFFFF7BEFBE4
:101AD000A0EB0B00642875D827480068C005F5D531
:101AE000A06801280AD008B1052811D0286A20F082
:101AF00001002862286A20F0040002E0286A40F011
:101B000001002862A068C8B3FFF7A0FB83460DE080
:101B1000286A40F004002862F0E700BFFFF796FB58
:101B2000A0EB0B0141F2883081424BD897FAA7F025
:101B3000B0FA80F040F04000B6EB501F01D12868A9
:101B40000BE097FAA7F0B0FA80F040F04000B7EB56
:101B5000501F01D1286A00E0686A97FAA7F1B1FA2C
:101B600081F101F01F0106FA01F21042D6D035E0F2
:101B700000100240000042420070004000E034E0EB
:101B8000FFF764FB834607E0FFF760FBA0EB0B0168
:101B900041F28830814215D897FAA7F0B0FA80F068
:101BA00040F04000B6EB501F01D128680CE097FAD6
:101BB000A7F0B0FA80F040F04000B7EB501F02D120
:101BC000286A01E089E0686A97FAA7F1B1FA81F121
:101BD00001F01F0106FA01F21042D5D1B9F1000F50
:101BE00003D0E86920F08050E861A06980B369689B
:101BF000C1F38101022973D04FF080714F00022898
:101C0000524609D091FAA1F0B0FA80F048F82020AD
:101C1000FFF71CFB044664E091FAA1F0B0FA80F0F3
:101C20008A46C14648F82020FFF710FB804605E0B1
:101C3000FFF70CFBA0EB080002284ED897FAA7F09C
:101C4000B0FA80F040F02000400902D0286801E09E
:101C500072E0686A97FAA7F1B1FA81F101F01F0109
:101C600006FA01F10842E3D1E86A616A20F00F0048
:101C70000843E862D4E907100843696821F4761143
:101C8000084368609AFAAAF0B0FA80F049F8206038
:101C9000FFF7DCFA044604E0FFF7D8FA001B02283D
:101CA0001BD897FAA7F0B0FA80F040F02000400966
:101CB00001D0286800E0686A97FAA7F1B1FA81F1CB
:101CC00001F01F0106FA01F10842E5D034E000BF3F
:101CD000FFF7BCFA001B022803D90320BDE8F88FE8
:101CE00015E097FAA7F0B0FA80F040F02000400924
:101CF00001D0286800E0686A97FAA7F1B1FA81F18B
:101D000001F01F0106FA01F10842E1D114E00128B7
:101D1000E4D06868E96AE36900F4C0329A4209D104
:101D2000226A00F47010904204D101F00F00616A41
:101D3000884201D00120D1E70020CFE710B5401E36
:101D4000B0F1807F01D3012010BD4FF0E02460612D
:101D50000F21601700F0EAFE0020A061072020613B
:101D6000002010BD30B590F83C20012A3DD0012262
:101D700080F83C20CA688B6822F440721A434B6892
:101D800022F480621A430B6822F400621A430B6942
:101D900022F480521A434B6922F400521A438B6A90
:101DA00022F480421A430B8B22F4702242EA03424F
:101DB0000F4D03680024AB4205D00E4DAB4202D05C
:101DC0000D4DAB420CD18D8C22F4700242EA0552CB
:101DD000CD6922F080722A43096A22F000720A4318
:101DE0005A6480F83C40002030BD022030BD000025
:101DF000002C01400034014000500140F0B590F843
:101E00003C20012A3CD0012580F83C50022280F879
:101E10003D200268536894681A4E1B4FDFF86CC06F
:101E2000B24203D0BA4201D0624504D123F4700E0D
:101E30004B6843EA0E0323F0700E0B6843EA0E036F
:101E400053600268B2420FD0B2F1804F0CD0104BF9
:101E50009A4209D00F4B9A4206D0BA4204D00E4B98
:101E60009A4201D0624504D1896824F08003194365
:101E7000916080F83D50002180F83C100846F0BD8C
:101E80000220F0BD002C0140003401400050014010
:101E900000040040000800400040014010B504006C
:101EA00003D094F83D0010B107E0012010BD0020E0
:101EB00084F83C00204600F023F8022084F83D001E
:101EC000211D206800F0D4FB012084F8480084F82C
:101ED0003E0084F83F0084F8400084F8410084F814
:101EE000420084F8430084F8440084F8450084F8F4
:101EF000460084F8470084F83D00002010BD000033
:101F000008B500680649884208D10648816941F44D
:101F100000618161806900F40060009008BD0000EC
:101F2000002C01400010024070B5044690F83C00BF
:101F30000025012817D0012684F83C60022084F88F
:101F40003D00226890682F4B184020F47F4090603D
:101F50000868502838D00DDC20284FD005DC90B31D
:101F6000102811D14AE0022070BD302846D0402808
:101F70000AD13BE060282FD070280DD0B0F5805FEB
:101F800003D0B0F5005F12D0012584F83D60002039
:101F900084F83C00284670BDCB68D1E90121206857
:101FA00000F0DDFB2068816841F0770109E0CB6833
:101FB000D1E90121206800F0D2FB2068816841F45A
:101FC00080418160E1E719E0CA684968206800F053
:101FD00089FD5021206806E0CA684968206800F041
:101FE00092FD6021206800F0C4FBCEE7CA68496812
:101FF000206800F077FD40212068F4E72268014660
:102000001046F0E788FFFEFF10B586B004461421A5
:102010006846FEF7A6F90D492068884214D10C489D
:10202000416941F4002141614069002100F4002030
:102030000590072000900220CDE90101CDE90310B1
:1020400069460448FEF7D4FF06B010BD002C0140DD
:10205000001002400008004870B5044690F83C00AB
:1020600000260D4601280BD0012084F83C000C2AE4
:102070004AD007DC82B1042A20D0082A06D131E0F8
:10208000022070BD102A53D0142A63D001260020EC
:1020900084F83C00304670BD206800F073FB206877
:1020A000816941F0080181612068816921F00401A2
:1020B0008161206881692A69114311E0206800F07C
:1020C000B7FB2068816941F4006181612068816902
:1020D00021F480618161206881692A6941EA0221D5
:1020E0008161D4E7206800F0F3FB2068C16941F00A
:1020F0000801C1612068C16921F00401C161206843
:10210000C1692A69114311E0206800F031FC2068A0
:10211000C16941F40061C1612068C16921F4806135
:10212000C1612068C1692A6941EA0221C161AEE743
:10213000206800F05DFC2068416D41F008014165B8
:102140002068416D21F0040141652068416D2A69D4
:10215000114311E0206800F087FC2068416D41F4D4
:10216000006141652068416D21F48061416520680E
:10217000416D2A6941EA0221416588E710B50400F2
:1021800003D094F83D0010B107E0012010BD0020FD
:1021900084F83C00204600F022F8022084F83D003C
:1021A000211D206800F064FA012084F8480084F8BA
:1021B0003E0084F83F0084F8400084F8410084F831
:1021C000420084F8430084F8440084F8450084F811
:1021D000460084F8470084F83D00002010BD704799
:1021E00070B50446022269B1042912D0082917D01B
:1021F0000C291CD0102921D094F84300012824D0A8
:10220000012070BD94F83E000128F9D184F83E20E9
:102210001DE094F83F000128F2D184F83F2016E039
:1022200094F840000128EBD184F840200FE094F8A6
:1022300041000128E4D184F8412008E094F84200EC
:102240000128DDD184F8422001E084F843200122F6
:10225000206800F077FA1B4920681B4A1B4B1C4D75
:1022600088420BD0904209D0984207D0194EB04214
:1022700004D0194EB04201D0A84203D1466C46F4B6
:1022800000464664206888420ED0B0F1804F0BD0E3
:102290001249884208D01249884205D0904203D0A2
:1022A000984201D0A84207D181680E4A1140062900
:1022B00006D0B1F5803F03D0016841F00101016013
:1022C000002070BD002C014000340140004001405E
:1022D000005001400044014000480140000400401B
:1022E0000008004007000100FEE7000030B589B09B
:1022F000002406940794182168460894FEF731F8E4
:1023000018484FF0A0410125C0E900148460046121
:10231000447680F82040C0E90A54C561C46080F862
:1023200030400421416104764463FEF76FFB08B13D
:10233000FEF710F906A90B480694FEF70DF908B14F
:10234000FEF708F900950394CDE901540494694619
:1023500004480594FEF78CF9002801D0FEF7FAF83E
:1023600009B030BD2000002030B587B01821684684
:10237000FDF7F7FF154814490024C0E900148460F4
:102380000461447680F820400125C0E90A54C56103
:10239000C46080F830400421416104764463FEF754
:1023A00035FB08B1FEF7D6F800950394CDE901544A
:1023B0000494694605480594FEF75AF9002801D0AF
:1023C000FEF7C8F807B030BD0001005070000020D3
:1023D00030B589B000240694079418216846089403
:1023E000FDF7BFFF194818490125C0E900148460B2
:1023F0000461447680F82040C0E90A54C561C46095
:1024000080F830400421416104764463FEF7FEFA0F
:1024100008B1FEF79FF806A90C480694FEF79CF851
:1024200008B1FEF797F800950394CDE901540494A0
:10243000694606480594FEF71BF9002801D0FEF70F
:1024400089F809B030BD000000040050C000002031
:1024500030B587B014216846FDF783FF1A484169FB
:1024600041F400214161416901F400210591416974
:1024700041F400314161416901F400310591416944
:1024800041F480214161416901F480210591416954
:1024900041F40011416140690C4D00F400104FF40B
:1024A00074440590002221462846FEF7C9FE01200B
:1024B00000210094CDE90101039169462846FEF709
:1024C00097FD07B030BD000000100240001000482A
:1024D00010B59AB000241794189415941694129479
:1024E00013941C2168461494FDF73BFF2C2107A888
:1024F000FDF737FF34483349016040F27F21C0E9DE
:10250000011440F2CF71C0E903148021C0E90541F4
:10251000FFF7C4FC08B1FEF71DF84FF4805015908A
:1025200015A92948FFF700FD08B1FEF713F8264862
:10253000FFF724FE08B1FEF70DF81294139412A9C8
:1025400021481494FFF75AFC08B1FEF703F8602005
:10255000CDE9000402940394049405940022694692
:1025600019480694FFF778FD08B1FDF7F3FF042240
:1025700069461548FFF770FD08B1FDF7EBFF08222B
:1025800069461148FFF768FD08B1FDF7E3FF0794BE
:10259000089409944FF400500A94CDE90B400003CD
:1025A000CDE90E400D94109407A907481194FFF748
:1025B000D9FB08B1FDF7CEFF0348FFF725FD1AB0A0
:1025C00010BD0000002C014010010020FEE7FEE7D6
:1025D00070477047FEF740BE30B5A5B0282116A859
:1025E000FDF7BFFE142120A8FDF7BBFE5821684669
:1025F000FDF7B7FE01201990102002251A90C002A5
:10260000CDE91C504FF4C0100024CDE91E041695EE
:1026100016A8FFF7B3F808B172B6FEE70F20CDE9B0
:1026200020054FF48060CDE92240022120A82494A7
:10263000FEF7DEFF08B172B6FEE74FF48C50009053
:102640004FF480700A9040010B900D946846FEF79D
:1026500085FE002801D072B6FEE725B030BD00002F
:102660000248016841F470010160704788ED00E0A4
:102670002DE9F04702682B4B2B4E2C4F2C4C2D4D47
:102680004FF0804A984209D0504507D0B04205D05B
:10269000B84203D0A04201D0A84204D122F0700C6D
:1026A0004A6842EA0C02DFF890C0DFF89080DFF859
:1026B000909098420FD050450DD0B0420BD0B84208
:1026C00009D0A04207D0604505D0404503D0484519
:1026D00001D0A84203D122F44076CA6832434E6941
:1026E00022F08002324302608A68C2620A68826213
:1026F000984209D0A04207D0604505D0404503D09C
:10270000484501D0A84201D1096901630121416115
:102710000169C90703D0016921F001010161BDE828
:10272000F0870000002C0140000400400008004039
:10273000003401400050014000400140004401408D
:102740000048014010B501F01F030121046A9940BF
:102750008C430462016A9A401143016210BD10B5B6
:10276000846842EA032224F47F440A4322438260BD
:1027700010BD826822F070020A4342F007018160B6
:10278000704700002DE9F047056A026A22F0010255
:102790000262436882691F4C25F0020522400C68E2
:1027A00022F0030214438A681C4E2A431A4D1C4F20
:1027B000DFF870C0DFF87090DFF870A0A84209D091
:1027C000B04207D0B84205D0604503D0484501D09B
:1027D000504506D122F00808CA6842EA080222F0F1
:1027E0000402A84209D0B04207D0B84205D06045E3
:1027F00003D0484501D0504505D14D6923F44073BD
:102800001D438B692B4343608461496841630262C5
:10281000BDE8F0878FFFFEFF002C0140003401402F
:102820000040014000440140004801400050014088
:10283000F0B5056A026A22F01002026242688369FA
:102840001C4C1E4E23400C6823F4407343EA0424BE
:1028500025F020038D681A4F43EA0513164DA84250
:1028600003D0B04201D0B84207D1D1F80CC023F058
:10287000800343EA0C1323F04003A8420CD0B0427B
:102880000AD0104DA84207D00F4DA84204D00F4DDA
:10289000A84201D0B84207D14D6922F4406242EA11
:1028A00085028D6942EA85024260846149688163DC
:1028B0000362F0BDFF8FFFFE002C01400034014099
:1028C00000500140004001400044014000480140E8
:1028D000F0B5056A026A22F4807202624368C26936
:1028E0001C4C1E4E22400C6822F00302144325F4B7
:1028F00000728D681A4F42EA0522174DA84203D094
:10290000B04201D0B84207D1D1F80CC022F4006225
:1029100042EA0C2222F48062A8420CD0B0420AD0D3
:10292000104DA84207D0104DA84204D00F4DA84228
:1029300001D0B84207D14D6923F4405343EA05134F
:102940008D6943EA05134360C4614968C16302624B
:10295000F0BD00008FFFFEFF002C0140003401405D
:102960000050014000400140004401400048014047
:1029700030B5046A026A22F4805202624268C36976
:10298000144D24F400542B400D6823F4407343EAA3
:1029900005238D6844EA05340F4DA8420ED00F4D33
:1029A000A8420BD00E4DA84208D00E4DA84205D02B
:1029B0000D4DA84202D00D4DA84204D14D6922F41C
:1029C000804242EA85124260C36149680164046240
:1029D00030BD0000FF8FFFFE002C0140003401409D
:1029E00000400140004401400048014000500140C7
:1029F00030B5056A026A22F4803202624268436D91
:102A0000124C23400C681C4325F400330D8943EA23
:102A100005430F4DA8420ED00E4DA8420BD00E4DCF
:102A2000A84208D00D4DA84205D00D4DA84202D0B5
:102A30000C4DA84204D14D6922F4803242EA0522AD
:102A40004260446549688165036230BD8FFFFEFFC7
:102A5000002C01400034014000400140004401408E
:102A6000004801400050014030B5046A026A22F477
:102A7000801202624268436D134D24F400142B400F
:102A80000D6843EA05230D8944EA05540F4DA84219
:102A90000ED00F4DA8420BD00E4DA84208D00E4DBF
:102AA000A84205D00D4DA84202D00D4DA84204D138
:102AB0004D6922F4802242EA8522426043654968DA
:102AC000C165046230BD0000FF8FFFFE002C014095
:102AD00000340140004001400044014000480140F2
:102AE0000050014010B5036A046A24F00104046236
:102AF000846924F0F00444EA021423F00A020A4331
:102B00008461026210BD10B5036A046A24F01004E7
:102B10000462846923F0A00324F4704444EA02327E
:102B200043EA01118261016210BDFEE70907090E47
:102B3000002804DB00F1E02080F80014704700F06A
:102B40000F0000F1E02080F8141D7047FEF78CFBA9
:102B5000FFF742FDFFF77CFCFFF7C8FBFFF704FC23
:102B6000FFF736FCFFF7B4FC00214A48FFF738FBBB
:102B700004214848FFF734FB08214648FFF730FBA3
:102B80004548FEF77BF94548FEF778F94448FEF7DB
:102B900075F9444D00224FF400512846FEF750FBD2
:102BA0003C4E414C40F6D86B4FF0820A4FF47A7994
:102BB0004FF000084FF480670120FDF7A3FC608010
:102BC0000220FDF79FFCA0800320FDF79BFCE08026
:102BD00062885A4501D9524604E04A4501D2AA22E8
:102BE00000E0424633685A63A2885A4501D95146EB
:102BF00004E04A4501D2AA2100E0414632689163CF
:102C000040F6AC51884221D900224FF48051284629
:102C1000FEF716FB0120FEF7D9F9A4F80A8001227D
:102C200039462846FEF70CFB0120FEF7CFF90022BB
:102C300039462846FEF704FB0120FEF7C7F96089F4
:102C4000401C80B260816428E9D3B5E74845B3D21F
:102C5000012211032846FEF7F3FA0120FEF7B6F928
:102C6000A4F80A80012239462846FEF7E9FA012035
:102C7000FEF7ACF9002239462846FEF7E1FA0120BA
:102C8000FEF7A4F96089401C80B260816428E9D312
:102C900092E70000100100202000002070000020BA
:102CA000C000002000100048000000204FF04070DD
:102CB000E1EE100A704702030405060708090A0B33
:102CC0000C0D0E0F10100102030405060708090A77
:102CD0000B0C0D0E0F1000000000000000000102A0
:102CE0000304060708090000082D00080000002062
:102CF00020000000D0010008282D0008200000203E
:102D0000A0070000EC010008000000000000000027
:102D100000000000000000000100000010000000A2
:082D20000000000000127A001F
:040000050800019559
:00000001FF
