:020000040800F2
:10000000380800203502000863260008C1220008D5
:100010006126000821050008A1300008000000004A
:10002000000000000000000000000000D9260008C9
:1000300023050008000000006526000815270008B9
:100040004F0200084F0200084F0200084F0200084C
:100050004F0200084F0200084F0200084F0200083C
:100060004F0200084F0200084F0200084F0200082C
:100070004F0200084F0200084F0200084F0200081C
:100080004F0200084F0200084F0200084F0200080C
:100090004F0200084F0200084F0200084F020008FC
:1000A0004F0200084F0200084F0200084F020008EC
:1000B0004F0200084F0200084F0200084F020008DC
:1000C0004F0200084F0200084F0200084F020008CC
:1000D0004F0200084F0200084F0200084F020008BC
:1000E0004F0200084F0200084F0200084F020008AC
:1000F0004F0200084F0200084F0200084F0200089C
:100100004F02000800000000000000004F0200083D
:100110004F0200084F0200084F0200084F0200087B
:100120004F0200084F0200084F0200084F0200086B
:100130004F0200084F02000800000000000000000D
:100140004F0200084F0200084F02000800000000A4
:10015000000000000000000000000000000000009F
:100160004F0200084F0200084F0200084F0200082B
:100170004F0200084F0200084F0200084F0200081B
:100180004F0200084F0200080000000000000000BD
:100190004F02000800F002F800F03CF80AA090E8D6
:1001A000000C82448344AAF10107DA4501D100F032
:1001B00031F8AFF2090EBAE80F0013F0010F18BFC3
:1001C000FB1A43F001031847E42F0000043000003D
:1001D000103A24BF78C878C1FAD8520724BF30C873
:1001E00030C144BF04680C60704700000023002445
:1001F00000250026103A28BF78C1FBD8520728BF37
:1002000030C148BF0B6070471FB502F0ADFF1FBD86
:1002100010B510BD00F0CFF81146FFF7F5FF02F062
:1002200051FF00F0EDF803B4FFF7F2FF03BC00F05C
:10023000F5F800000948804709480047FEE7FEE757
:10024000FEE7FEE7FEE7FEE7FEE7FEE7FEE7FEE786
:1002500004480549054A064B70470000A1270008DD
:1002600095010008380200203808002038040020DA
:100270003804002053EA020C00F069802DE9F04BAD
:100280004FF00006002B1FBFB3FA83F503FA05F405
:1002900024FA05F65E4012BF1643B2FA82F502FA5E
:1002A00005F4C5F120051EBF22FA05FC44EA0C0442
:1002B000203556EA044C4FEA144418BF641C4FF032
:1002C00000084FF00009904271EB030C39D300296C
:1002D00019BFB1FA81F701FA07F6B0FA80F700FA10
:1002E00007F6C7F120071EBF20FA07FC46EA0C06F6
:1002F0002037B6FBF4FCA7EB0507103F07F01F0BF8
:10030000CBF120060CFA0BFB2CFA06F644BFB346E1
:100310000026202FA4BF5E464FF0000B5BEA060CC0
:1003200008BF4FF0010B19EB0B09ABFB027C48EB4C
:100330000608C01B06FB02CC0BFB03CC71EB0C01C7
:10034000C1E70B46024641464846BDE8F08B13B56F
:100350004FF000004FF00001AFF30080BDE81C40FB
:1003600070474FF0000200B5134694469646203978
:1003700022BFA0E80C50A0E80C50B1F12001BFF45E
:10038000F7AF090728BFA0E80C5048BF0CC05DF8C4
:1003900004EB890028BF40F8042B08BF704748BF12
:1003A00020F8022B11F0804F18BF00F8012B704786
:1003B000704770477047754600F02CF8AE46050050
:1003C0006946534620F00700854618B020B5FFF770
:1003D0003FFFBDE820404FF000064FF000074FF010
:1003E00000084FF0000B21F00701AC46ACE8C00953
:1003F000ACE8C009ACE8C009ACE8C0098D4670475C
:1004000010B50446AFF300802046BDE81040FFF76A
:100410000ABF000000487047D80100200149182099
:10042000ABBEFEE7260002007047000070B5044630
:100430000068816801F0030101292AD10168C90718
:1004400027D0816801F00D01012914D1816841F0A4
:100450000201816021680320086000F04BFE054620
:1004600013E000BF00F046FE401B02280DD92068B3
:100470008068C00709D0206C40F010002064606CD8
:1004800040F001006064012070BD20688068C007F2
:10049000E8D1002070BD000070B504460068816896
:1004A00001F00301012902D10168C90725D1816842
:1004B000134A114212D1816841F00101816000F0BC
:1004C00019FE054614E000BF00F014FE401B022890
:1004D0000ED920680068C043C00709D0206C40F0E6
:1004E00010002064606C40F001006064012070BD69
:1004F00020680068C043C007E6D1002070BD00003E
:100500003F00008010B5054C82212268916300F005
:10051000B1FC21680020886310BD000004010020A8
:10052000FEE7704772B6FEE7F0B5002302684FF0B1
:10053000A04C3E4C94B01F46624501D100940DE0A2
:10054000A24202D1CDF800C008E0394D394EAA428E
:1005500001D1009602E0B24214D1009590F83C50CF
:10056000012D12D0012580F83C5095686D0753D4B9
:10057000009DAD686D074FD4624501D0A24206D1FF
:100580002D4A05E0012014B0F0BD0220FBE72B4A04
:100590000D6840F61F7425B3956890F8306025F417
:1005A000604545EA46354E68354395600568AE6856
:1005B00006F00306012E02D12D68ED0731D1009D12
:1005C000AD6805F00305012D03D1009D2D68ED07F1
:1005D00027D10D6889680D439168A1430D4395604B
:1005E0001FE0916821F46041916001688D6805F019
:1005F0000305012D02D10968C90712D10099896844
:1006000001F00301012903D100990968C90708D144
:100610009168A143916004E0016C41F02001016404
:10062000012380F83C701846ADE70000000100503F
:100630000004005000050050000300500007005067
:10064000F0B594B00024009490F83C202546012A8F
:1006500019D0012780F83C7003689A6852077CD44F
:100660004A681F26052A11D2D3F830C002EB420295
:10067000520096402CEA060C0E6896404CEA060C96
:10068000C3F830C035E0022014B0F0BD0A2A0FD202
:10069000D3F834C0521F02EB4202520096402CEABB
:1006A000060C0E6896404CEA060CC3F834C020E0F5
:1006B0000F2A0FD2D3F838C00A3A02EB4202520096
:1006C00096402CEA060C0E6896404CEA060CC3F8DD
:1006D00038C00EE0D3F83CC00F3A02EB42025200A1
:1006E00096402CEA060C0E6896404CEA060CC3F8BD
:1006F0003CC00268936813F00C0F4FF0070374D1ED
:10070000D1F800E0BEF10A0F10D39669AEF10A0EDF
:100710000EEB4E0C03FA0CFE26EA0E06D1F808E0AA
:100720000EFA0CFE46EA0E0696610FE0D2F814C0EF
:100730000EEB4E0603FA06FE2CEA0E0CD1F808E08A
:100740000EFA06FE4CEA0E0CC2F814C002684E699E
:10075000D2F80CC0CCF3C10C00E0FDE04FEA4C0C29
:1007600006FA0CF6D1F810E0DFF848C2BEF1010F2E
:1007700042D0BEF1020F4DD0BEF1030F58D0BEF1F2
:10078000040F63D0166E91F800C006F0F846B6EB81
:100790008C6F03D1166E26F0004616660268566E00
:1007A00091F800C006F0F846B6EB8C6F03D1566E98
:1007B00026F0004656660268966E91F800C006F074
:1007C000F846B6EB8C6F03D1966E26F0004696661F
:1007D0000268D66E91F800C006F0F846B6EB8C6F52
:1007E00003D1D66E26F00046D6660268966806F0FB
:1007F0000306012E3AD136E0D2F860E00EEA0C0E84
:1008000091F800C046EA8C664EEA060E4EF00046AD
:100810001666EAE7D2F864E00EEA0C0E91F800C022
:1008200046EA8C664EEA060E4EF000465666DCE757
:10083000D2F868E00EEA0C0E91F800C046EA8C6629
:100840004EEA060E4EF000469666CEE7D2F86CE011
:100850000EEA0C0E91F800C046EA8C664EEA060ECF
:100860004EF00046C0E71668F6077AD1CE68012E32
:1008700006D052F8B03F0E78B740BB43136021E07A
:1008800052F8B06F91F800C007FA0CF73E431660BB
:100890000A680A2A0BD30668B769093A02EB4202D2
:1008A00093409F438B6893401F43B7610AE00768FA
:1008B0007E69521C02EB420293409E438B68934038
:1008C0001E437E6103684FF0A0473B4EBB4201D000
:1008D000B34201D1394A00E0394A0968102904D0ED
:1008E000112907D012290AD03BE0D2F808C04FEAFC
:1008F0000C2C08E0D2F808C04FEACC1C03E0D2F878
:1009000008C04FEA4C2CBCF1000F2ADBBB420DD0D3
:10091000B34201D100970CE02A4EDFF8ACC0B342DD
:1009200002D1CDF800C004E0634501D1009600E09B
:1009300000959E6806F00306012E02D11E68F60798
:100940000AD1009E8EB1B66806F00306012E0CD1C6
:10095000009E3668F60708D0016C41F02001016462
:10096000012480F83C5020468EE6102908D0112939
:100970001AD01229F5D1916841F480019160F0E715
:10098000BB42EED1916841F4000191600F49104AD9
:100990000968B1FBF2F101EB8101490000E0491E59
:1009A00000910029FBD1DCE7BB42DAD1916841F02C
:1009B0008071E3E700F0FF83000100500003005066
:1009C00000070050000400500005005010000020F7
:1009D00040420F00F0B54FF0000695B004003746D6
:1009E0003546009605D0206CC00648D4206C18B15E
:1009F00033E0012015B0F0BD6564E564A56484F8BA
:100A00003C50204600F022F920688068C00024D4C1
:100A10002046FFF70BFD0646206CC0061DD4E6B944
:100A2000206C20F4885040F0020020642068816827
:100A300021F0405181602068816841F080518160DF
:100A400079487A490068B0FBF1F000EB8000400083
:100A500000E0401E00900028FBD120688168C9009A
:100A600002D5806880000AD5206C20F0020040F09A
:100A700010002064606C40F0010060640126206C6E
:100A8000C00672D4002E70D12068816849076CD4EA
:100A9000216C21F4807141F0020121644FF0A04EDD
:100AA000634B704501D0984201D1624A00E0624A2E
:100AB000DFF888C16249704501D100930EE0984289
:100AC00002D1CDF800E009E0884202D1CDF800C0A3
:100AD00004E0604501D1009100E00095836803F0D7
:100AE0000303012B02D10068C00710D1009840B168
:100AF000806800F00300012803D100980068C00757
:100B000005D19068636820F4403018439060D4E9C0
:100B100002201043626B012A02D04FF4805300E0A0
:100B20000023627E43EA4233184394F8203038436E
:100B3000012B0AD1D2B1226C22F0020242F0200233
:100B40002264626C42F001026264A26A012A37D018
:100B500023688B4201D063452DD14FF430714FF49F
:100B6000E0778A420AD13A4627E053E0A28C354B1F
:100B700003EB4242024342F48030E6E74FF48073D5
:100B80009A4201D10A4618E0BA4201D11A4614E04D
:100B9000B2F58A5F06D0B2F5845F06D0B2F5865F03
:100BA00006D00AE04FF4707207E04FF4A07204E040
:100BB0004FF4C07201E022F480520243E06A104315
:100BC00021688A6812F00C0F0BD1CA6844F2020344
:100BD0009A43CA60217E94F83020890341EA420199
:100BE00008432268D168184B19400143D16020693D
:100BF00001282068016B21F00F0102D1E269521E29
:100C0000114301636564206C20F0020040F0010094
:100C1000206406E0206C20F0020040F01000206408
:100C200001263046E6E600001000002040420F009A
:100C30000001005000030050000700500005005064
:100C4000000400500000FEFF07C0F0FFF0B587B0C1
:100C5000044614216846FFF784FB2D4B26680024C8
:100C60001A6803252B49521C4FF09040B6F1A04F53
:100C700006D0294FBE4231D11A60012A15D01CE09E
:100C80001A60012A07D14A6942F080524A614A69D2
:100C900002F0805205924A6942F400324A61496981
:100CA00001F400310591012110E04A6942F08052BF
:100CB0004A614A6902F0805205924A6942F4003260
:100CC0004A61496901F4003105911021CDE900150F
:100CD0000294694600F0E0F807B0F0BD0F48864284
:100CE000FAD1486940F000504861486900F000506E
:100CF0000590486940F4802048614869694600F4DD
:100D0000802005900220CDE9000502940448E1E727
:100D100000000020001002400001005000040050BC
:100D2000000400482DE9F04104460068806840074F
:100D300070D494F83C0001280CD0012084F83C00C9
:100D40002046FFF7A9FB03004FF0000605D084F80A
:100D50003C6086E00220BDE8F081206C40F6016135
:100D6000884340F48070206420684FF0A0413E4AE0
:100D70003E4D884201D0904202D1D1F8087300E084
:100D80002F6817F01F0F3A4F03D0884201D0B842A6
:100D90000BD1D4F840C02CF4801CC4F840C0D0F86B
:100DA0000CC05FEA8C1C14D41BE0D4F840C04CF497
:100DB000801CC4F840C0904202D1D1F80CC005E0BC
:100DC000DFF8ACC00CF10C0CDCF800C01CF0007FAC
:100DD00007D0D4F840C02CF4005C4CF4805CC4F81C
:100DE00040C0D4F840C05FEACC4C06D5D4F844C02B
:100DF0002CF0060CC4F844C000E0666484F83C6043
:100E00001C2606602068884201D0904203D1D1F8A8
:100E1000084301E024E02C6814F01F0F1BD0884227
:100E200001D0904202D1D1F8084300E02C6804F0D0
:100E30001F04052C0FD0884201D0904202D1D1F876
:100E4000082300E02A6802F01F02092A03D0884222
:100E500001D0B84205D1816841F00401816000E011
:100E60000223184677E700000001005008070050F1
:100E70000004005070B5044600F03CF90546601CC3
:100E800002D004480078044400F034F9401BA0422A
:100E9000FAD370BD040000202DE9F04FDFF8249252
:100EA000002201260325A9F1040B85B00F2709F1C3
:100EB000040AABF1040EFCE006FA02F423407CD0F5
:100EC00091F804C00CF0030CBCF1010F02D0BCF18E
:100ED000020F26D1D0F808C0CDF800C04FEA420C6E
:100EE00005FA0CF8CDF810C0DDF800C02CEA080CAB
:100EF000CDF800C0D1F80C80DDF810C008FA0CF86D
:100F0000DDF800C048EA0C08C0F80880D0F804C03A
:100F10002CEA040C0C79C4F30014944044EA0C0449
:100F200044600C79E443A4070ED0C4684FEA420839
:100F300005FA08FC24EA0C04D1F808C00CFA08FCF5
:100F40004CEA040CC0F80CC00C7904F00304022C29
:100F500015D1D40800EB84040294246A4FEA427C41
:100F60004FEADC6807FA08FC24EA0C04D1F810C048
:100F70000CFA08FC4CEA040C029CC4F820C004687B
:100F80004FEA420805FA08FC24EA0C0491F804C070
:100F90000CF0030C0CFA08FC4CEA040CC0F800C07E
:100FA0004C6814F4403F08D0474CD4F818C04CF0BB
:100FB000010CC4F818C0A46900E079E004F0010451
:100FC0000094424C22F0030C64440294A4684FEA5B
:100FD000827C4FEA1C7807FA08FC24EA0C04B0F182
:100FE000904F06D0DFF8E8C0604505D14FF0010C06
:100FF00027E04FF0000C24E0DFF8D8C0604502D1B4
:101000004FF0020C1DE0DFF8D0C0604502D14FF078
:10101000030C16E0DFF8C4C0604502D14FF0040CA9
:101020000FE0DFF8BCC0604502D14FF0050C08E0CE
:10103000DFF8B0C0604502D14FF0060C01E04FF080
:10104000070C0CFA08FC4CEA040C029CC4F808C01B
:10105000D9F80040CC46D1F804809C435FEAC82808
:1010600000D51C43CCF80040DAF80040D446D1F853
:1010700004809C435FEA882800D51C43CCF80040DC
:10108000DBF80040DC46D1F804809C435FEA8838F6
:1010900000D51C43CCF80040DEF80040F446D1F8FF
:1010A00004809C435FEAC83800D51C43CCF800405C
:1010B000521C0B6833FA02F47FF4FEAE05B0BDE8B3
:1010C000F08F0000080401400010024000000140C1
:1010D0000004004800080048000C004800100048C8
:1010E00000140048001800480AB18161704781620D
:1010F000704700000148806870470000040000202D
:101100000248816802781144816070470400002021
:10111000074810B5016841F010010160032000F09C
:101120005FF80F2000F006F800F024F8002010BD52
:101130000020024070B50D4D04464FF47A712878B6
:10114000B1FBF0F00A490968B1FBF0F000F07AFD5C
:1011500048B9102C07D200222146501E00F020F87A
:1011600000206C6070BD012070BD000004000020F4
:1011700010000020094808B5816941F00101816132
:10118000816901F001010091C16941F08051C161A3
:10119000C06900F08050009008BD000000100240BF
:1011A000F0B40E4B1B680C46C3F30223C3F10705D2
:1011B000042D00D90425191D072901D2002300E0C0
:1011C000DB1E012606FA05F1491E214099409E408A
:1011D000761E16403143F0BC01F063BF0CED00E019
:1011E000064900F0070208684FF6FF03184040EA7E
:1011F0000220034A10430860704700000CED00E035
:101200000000FA052DE9F84F0446006800269F4DBE
:10121000C0036ED5E869C00008D4E86940F080508A
:10122000E861E869012600F0805000909848016864
:10123000C90512D40168804641F480710160FFF74E
:1012400059FF074605E000BFFFF754FFC01B6428A5
:1012500035D8D8F80000C005F6D5286A10F44070DB
:1012600053D0A18801F4407181424ED0286A4FF4D6
:10127000803191FAA1F2B2FA82F29700854A4FF0DA
:101280000108174420F44070C7F8008491FAA1F1D6
:10129000B1FA81F102EB81010023C1F80034286228
:1012A000C00732D0FFF726FF074641F2883A4FF0D9
:1012B000020907E0FFF71EFFC11B514502D90320B9
:1012C000BDE8F88F99FAA9F1B1FA81F141F0400136
:1012D0004846B8EB511F01D129680CE090FAA0F103
:1012E000B1FA81F141F04001B0EB511F02D1296AFE
:1012F00001E015E0696A99FAA9F0B0FA80F000F00F
:101300001F0008FA00F21142D4D0286A616820F464
:101310004070084328621EB1E86920F08050E861FF
:101320002078C00705D0286BA16820F0030008438F
:1013300028632078800705D5286BE16820F44030C9
:10134000084328632078400705D5286B216920F4DD
:101350004020084328632078800605D5286BE16982
:1013600020F01000084328632068800305D56868D2
:10137000616D20F48000084368602078400605D540
:10138000286B216A20F0200008432863206840036E
:1013900005D5286B616A20F0400008432863207857
:1013A000000705D5286B616920F4401008432863C5
:1013B0002078C00605D5286BA16920F440000843B9
:1013C00028632088800505D56868216B20F400001B
:1013D000084368602078000605D5E86AA16A20F411
:1013E000F8700843E8622088C00505D5E86AE16A1C
:1013F00020F478500843E8622088C00405D5286BA3
:10140000616B20F48070084328632088800405D530
:10141000286B216C20F40070084328632068C00208
:1014200005D5286BA16B20F08070084328632068E5
:10143000800205D5286BE16B20F00070084328631B
:101440002068400205D5286B616C20F48060084359
:1014500028632068000205D5286BA16C20F4006089
:10146000084328632068C00105D5286BE16C20F48F
:101470000050084328632068800105D5286B216D42
:1014800020F4004008432863002019E700100240C0
:1014900000700040000042422DE9F0470F46050071
:1014A00069D04A4E306800F00700B84209D230686F
:1014B00020F0070038433060306800F00700B84281
:1014C00059D12878424C800705D56068A96820F07A
:1014D000F000084360602878C0073DD069680120AB
:1014E00001290DD0022923D05FF0020393FAA3F261
:1014F000B2FA82F242F02002520904D0226803E0DC
:101500004FF40033F2E7626A93FAA3F3B3FA83F37A
:1015100003F01F03984002422DD0606820F00300C2
:1015200008436060FFF7E6FD804641F288390CE031
:101530004FF00073DAE700BFFFF7DCFDA0EB080116
:10154000494502D90320BDE8F0876068696800F06A
:101550000C00B0EB810FEFD1306800F00700B8420B
:101560000BD9306820F0070038433060306800F055
:101570000700B84201D00120E5E72878400705D5EB
:101580006068E96820F4E06008436060287800073C
:1015900006D56068296920F4605040EAC1006060A7
:1015A00000F04EF86168F02292FAA2F201F0F00128
:1015B000B2FA82F2D140074A515CC840064908603D
:1015C00006480068FFF7B6FD0020BCE70020024097
:1015D0000010024092310008100000200800002096
:1015E00008480949006849684FF4E06292FAA2F29B
:1015F00001F4E061B2FA82F2D140044A515CC84081
:10160000704700001000002000100240A2310008C6
:1016100008480949006849684FF4605292FAA2F2FA
:1016200001F46051B2FA82F2D140044A515CC840E0
:10163000704700001000002000100240A231000896
:101640000D4A10B551680D4801F00C03042B11D060
:10165000082B0FD10A4BC1F38344D26A1C5D02F000
:101660000F021033C9039A5C00231946FEF702FEED
:10167000A0FB040110BD00000010024000127A001F
:10168000723100082DE9F84F04007DD02078FA4D22
:10169000C0074FF0010637D068687704C0F38100B7
:1016A000012819D06868C0F38100022804D1686855
:1016B000C0F3C13002280FD06068B0F5803F24D05D
:1016C00010B1B0F5A02F2AD0286820F4803028600F
:1016D000286820F480201BE097FAA7F0B0FA80F089
:1016E00040F02000400901D0286800E0686A97FABD
:1016F000A7F1B1FA81F101F01F0106FA01F10842E8
:101700004ED060680028C0D04AE0286840F480309D
:101710002860606820B3FFF7EDFC80460AE0286887
:1017200040F480202860F0E7FFF7E4FCA0EB08001D
:10173000642873D897FAA7F0B0FA80F040F0200040
:10174000400901D0286800E0686A97FAA7F1B1FA69
:1017500081F101F01F0106FA01F10842E4D01FE017
:10176000FFF7C8FC804605E0FFF7C4FCA0EB0800CB
:101770006428DED897FAA7F0B0FA80F040F0200095
:10178000400902D0286801E0B9E0686A97FAA7F139
:10179000B1FA81F101F01F0106FA01F10842E3D12B
:1017A0002078DFF8D88280074FF0000A4FF0020758
:1017B0005DD568684FF0F80B10F00C0F15D0686815
:1017C000C0F38100022804D16868C0F3C130012849
:1017D0000BD0E068A0B396FAA6F0B0FA80F048F813
:1017E0002060FFF787FC814620E097FAA7F0B0FA67
:1017F00080F040F02000400901D0286800E0686ACD
:1018000097FAA7F1B1FA81F101F01F0106FA01F18F
:10181000084221D0E068012871D11DE056E100BFE7
:10182000FFF768FCA0EB09000228A2D897FAA7F0FE
:10183000B0FA80F040F02000400902D0286801E0B2
:1018400016E0686A97FAA7F1B1FA81F101F01F0179
:1018500006FA01F10842E3D028689BFAABF221694D
:10186000B2FA82F220F0F80091400843286024E0A8
:1018700096FAA6F1B1FA81F148F821A0FFF73AFCF7
:10188000814605E0FFF736FCA0EB09000228CCD822
:1018900097FAA7F0B0FA80F040F02000400901D09C
:1018A000286800E0686A97FAA7F1B1FA81F101F0BF
:1018B0001F0106FA01F10842E4D1207800076AD539
:1018C0006069A0B396FAA6F0B0FA80F008EB800049
:1018D000C0F88064FFF70EFC814605E0FFF70AFCC4
:1018E000A0EB09000228A0D897FAA7F0B0FA80F080
:1018F00040F06000B6EB501F02D128680CE09DE17B
:1019000097FAA7F0B0FA80F040F06000B7EB501FF4
:1019100001D1286A00E0686A97FAA7F1B1FA81F16B
:1019200001F01F0106FA01F21042D7D033E0FFE7C1
:1019300096FAA6F0B0FA80F008EB8000C0F880A418
:10194000FFF7D8FB814605E0FFF7D4FBA0EB0900C9
:1019500002289CD897FAA7F0B0FA80F040F0600017
:10196000B6EB501F01D128680BE097FAA7F0B0FA48
:1019700080F040F06000B7EB501F01D1286A00E012
:10198000686A97FAA7F1B1FA81F101F01F0106FA2E
:1019900001F21042D8D12078400774D5E8694FF0A1
:1019A0000009C00009D4E86940F08050E861E869A6
:1019B0004FF0010900F08050009031480168C905DE
:1019C00012D4016841F480710160FFF793FB8346F4
:1019D00006E000BFFFF78EFBA0EB0B00642875D874
:1019E00027480068C005F5D5A06801280AD008B1CD
:1019F000052811D0286A20F001002862286A20F00A
:101A0000040002E0286A40F001002862A068C8B320
:101A1000FFF770FB83460DE0286A40F0040028625F
:101A2000F0E700BFFFF766FBA0EB0B0141F2883047
:101A300081424BD897FAA7F0B0FA80F040F040000E
:101A4000B6EB501F01D128680BE097FAA7F0B0FA67
:101A500080F040F04000B7EB501F01D1286A00E051
:101A6000686A97FAA7F1B1FA81F101F01F0106FA4D
:101A700001F21042D6D035E0001002400000424290
:101A80000070004000E034E0FFF734FB834607E0DD
:101A9000FFF730FBA0EB0B0141F28830814215D8F3
:101AA00097FAA7F0B0FA80F040F04000B6EB501F74
:101AB00001D128680CE097FAA7F0B0FA80F040F066
:101AC0004000B7EB501F02D1286A01E089E0686A44
:101AD00097FAA7F1B1FA81F101F01F0106FA01F2BC
:101AE0001042D5D1B9F1000F03D0E86920F0805041
:101AF000E861A06980B36968C1F38101022973D0EC
:101B00004FF080714F000228524609D091FAA1F09F
:101B1000B0FA80F048F82020FFF7ECFA044664E0C1
:101B200091FAA1F0B0FA80F08A46C14648F8202028
:101B3000FFF7E0FA804605E0FFF7DCFAA0EB0800CB
:101B400002284ED897FAA7F0B0FA80F040F02000B3
:101B5000400902D0286801E072E0686A97FAA7F1AC
:101B6000B1FA81F101F01F0106FA01F10842E3D157
:101B7000E86A616A20F00F000843E862D4E90710C0
:101B80000843696821F47611084368609AFAAAF05C
:101B9000B0FA80F049F82060FFF7ACFA044604E0A0
:101BA000FFF7A8FA001B02281BD897FAA7F0B0FA93
:101BB00080F040F02000400901D0286800E0686A09
:101BC00097FAA7F1B1FA81F101F01F0106FA01F1CC
:101BD0000842E5D034E000BFFFF78CFA001B022872
:101BE00003D90320BDE8F88F15E097FAA7F0B0FA03
:101BF00080F040F02000400901D0286800E0686AC9
:101C000097FAA7F1B1FA81F101F01F0106FA01F18B
:101C10000842E1D114E00128E4D06868E96AE36988
:101C200000F4C0329A4209D1226A00F47010904246
:101C300004D101F00F00616A884201D00120D1E790
:101C40000020CFE710B5401EB0F1807F01D3012006
:101C500010BD4FF0E02460610F21601701F021FA00
:101C60000020A06107202061002010BD30B590F851
:101C70003C20012A3DD0012280F83C20CA688B68B4
:101C800022F440721A434B6822F480621A430B68B4
:101C900022F400621A430B6922F480521A434B6902
:101CA00022F400521A438B6A22F480421A430B8BAF
:101CB00022F4702242EA03420F4D03680024AB4233
:101CC00005D00E4DAB4202D00D4DAB420CD18D8CE8
:101CD00022F4700242EA0552CD6922F080722A4352
:101CE000096A22F000720A435A6480F83C400020DE
:101CF00030BD022030BD0000002C01400034014006
:101D000000500140F0B590F83C20012A3CD001255C
:101D100080F83C50022280F83D20026853689468A5
:101D20001A4E1B4FDFF86CC0B24203D0BA4201D04A
:101D3000624504D123F4700E4B6843EA0E0323F08E
:101D4000700E0B6843EA0E0353600268B2420FD074
:101D5000B2F1804F0CD0104B9A4209D00F4B9A42EF
:101D600006D0BA4204D00E4B9A4201D0624504D14B
:101D7000896824F080031943916080F83D50002168
:101D800080F83C100846F0BD0220F0BD002C014058
:101D900000340140005001400004004000080040B1
:101DA0000040014010B5040003D094F83D0010B18C
:101DB00007E0012010BD002084F83C00204600F020
:101DC00023F8022084F83D00211D206800F0F0FC7B
:101DD000012084F8480084F83E0084F83F0084F82D
:101DE000400084F8410084F8420084F8430084F8FD
:101DF000440084F8450084F8460084F8470084F8DD
:101E00003D00002010BD000008B50068064988426A
:101E100008D10648816941F400618161806900F45C
:101E20000060009008BD0000002C0140001002403E
:101E300070B5044690F83C000025012817D0012613
:101E400084F83C60022084F83D00226890682F4BA3
:101E5000184020F47F4090600868502838D00DDC8E
:101E600020284FD005DC90B3102811D14AE0022081
:101E700070BD302846D040280AD13BE060282FD0E2
:101E800070280DD0B0F5805F03D0B0F5005F12D0A0
:101E9000012584F83D60002084F83C00284670BD90
:101EA000CB68D1E90121206800F0F9FC2068816845
:101EB00041F0770109E0CB68D1E90121206800F009
:101EC000EEFC2068816841F480418160E1E719E01F
:101ED000CA684968206800F0A5FE5021206806E025
:101EE000CA684968206800F0AEFE6021206800F0F2
:101EF000E0FCCEE7CA684968206800F093FE402104
:101F00002068F4E7226801461046F0E788FFFEFFEC
:101F100010B586B0044614216846FEF722FA0D4932
:101F20002068884214D10C48416941F40021416184
:101F30004069002100F4002005900F20009002204D
:101F4000CDE90101CDE9031069460448FEF7A4FF7D
:101F500006B010BD002C01400010024000080048EF
:101F600070B5044690F83C0000260D4601280BD0C1
:101F7000012084F83C000C2A4AD007DC82B1042AF4
:101F800020D0082A06D131E0022070BD102A53D09B
:101F9000142A63D00126002084F83C00304670BD2E
:101FA000206800F08FFC2068816941F008018161A0
:101FB0002068816921F004018161206881692A69B2
:101FC000114311E0206800F0D3FC2068816941F4DE
:101FD000006181612068816921F4806181612068EC
:101FE00081692A6941EA02218161D4E7206800F011
:101FF0000FFD2068C16941F00801C1612068C16915
:1020000021F00401C1612068C1692A69114311E00E
:10201000206800F04DFD2068C16941F40061C16194
:102020002068C16921F48061C1612068C1692A69A1
:1020300041EA0221C161AEE7206800F079FD206825
:10204000416D41F0080141652068416D21F00401B6
:1020500041652068416D2A69114311E0206800F054
:10206000A3FD2068416D41F4006141652068416D28
:1020700021F4806141652068416D2A6941EA0221AD
:10208000416588E710B5040003D094F83D0010B115
:1020900007E0012010BD002084F83C00204600F03D
:1020A00022F8022084F83D00211D206800F080FB0A
:1020B000012084F8480084F83E0084F83F0084F84A
:1020C000400084F8410084F8420084F8430084F81A
:1020D000440084F8450084F8460084F8470084F8FA
:1020E0003D00002010BD704770B50446022269B162
:1020F000042912D0082917D00C291CD0102921D06E
:1021000094F84300012824D0012070BD94F83E00CB
:102110000128F9D184F83E201DE094F83F00012801
:10212000F2D184F83F2016E094F840000128EBD16A
:1021300084F840200FE094F841000128E4D184F8AD
:10214000412008E094F842000128DDD184F84220C3
:1021500001E084F843200122206800F093FB1B4932
:1021600020681B4A1B4B1C4D88420BD0904209D063
:10217000984207D0194EB04204D0194EB04201D057
:10218000A84203D1466C46F4004646642068884263
:102190000ED0B0F1804F0BD01249884208D01249BE
:1021A000884205D0904203D0984201D0A84207D17E
:1021B00081680E4A1140062906D0B1F5803F03D050
:1021C000016841F001010160002070BD002C014058
:1021D00000340140004001400050014000440140F3
:1021E00000480140000400400008004007000100D2
:1021F00010B5040002D0E06F10B107E0012010BD5F
:10220000002084F87800204600F026F82420E067BB
:102210002068016821F001010160606A10B1204668
:1022200000F032FD204600F00DFE0128E7D02068C6
:10223000416821F4904141602068816821F02A01C1
:1022400081602068016841F0010101602046BDE81D
:10225000104000F07DBD000010B586B0044614218A
:102260006846FEF77EF81349206888421FD112485D
:10227000C16941F40021C161C16901F400210591E6
:10228000416941F4002141614069694600F4002040
:1022900005904FF4406000900220019000200290D1
:1022A00003200390052004900448FEF7F5FD06B0D6
:1022B00010BD0000004C0040001002400008004823
:1022C000FEE7000030B589B0002406940794182179
:1022D00068460894FEF745F818484FF0A0410125DC
:1022E000C0E9001484600461447680F82040C0E9AD
:1022F0000A54C561C46080F830400421416104760D
:102300004463FEF767FB08B1FEF70CF906A90B481A
:102310000694FEF709F908B1FEF704F90095039455
:10232000CDE901540494694604480594FEF788F900
:10233000002801D0FEF7F6F809B030BD14000020E7
:1023400030B587B018216846FEF70BF815481449D8
:102350000024C0E9001484600461447680F82040C1
:102360000125C0E90A54C561C46080F830400421E9
:10237000416104764463FEF72DFB08B1FEF7D2F805
:1023800000950394CDE901540494694605480594E9
:10239000FEF756F9002801D0FEF7C4F807B030BDAB
:1023A000000100506400002030B589B0002406947C
:1023B0000794182168460894FDF7D3FF1948184977
:1023C0000125C0E9001484600461447680F820404F
:1023D000C0E90A54C561C46080F8304004214161FD
:1023E00004764463FEF7F6FA08B1FEF79BF806A9F7
:1023F0000C480694FEF798F808B1FEF793F800959C
:102400000394CDE901540494694606480594FEF707
:1024100017F9002801D0FEF785F809B030BD00009B
:1024200000040050B40000202DE9F04786B01421CC
:102430006846FDF796FF3448416941F40021416147
:10244000416901F400210591416941F40031416184
:10245000416901F400310591416941F480214161F4
:10246000416901F480210591416941F40011416104
:10247000416901F400110591416941F48011416104
:10248000416901F480110591416941F40001416104
:102490004069DFF8788000F400004FF47444059040
:1024A000002221464046FEF71FFEDFF864904FF4FD
:1024B0008066002231464846FEF716FEDFF854A03B
:1024C000B710002239465046FEF70EFE0125CDE931
:1024D000004500240294694640460394FEF7DCFC64
:1024E0000096CDE90154694648460394FEF7D4FCB2
:1024F0000097CDE90154694650460394FEF7CCFCA1
:1025000006B0BDE8F087000000100240001000484F
:10251000000C00480018004810B59AB00024179429
:10252000189415941694129413941C2168461494CC
:10253000FDF717FF2C2107A8FDF713FF384837498F
:10254000016040F27F21C0E9011440F2CF71C0E97F
:1025500003148021C0E90541FFF724FC08B1FDF711
:10256000E1FF4FF48050159015A92D48FFF760FC4E
:1025700008B1FDF7D7FF2A48FFF784FD08B1FDF742
:10258000D1FF1294139412A925481494FFF7BAFBB3
:1025900008B1FDF7C7FF6020CDE900040294039461
:1025A00004940594002269461D480694FFF7D8FC60
:1025B00008B1FDF7B7FF042269461948FFF7D0FCC0
:1025C00008B1FDF7AFFF082269461548FFF7C8FCC0
:1025D00008B1FDF7A7FF0C2269461148FFF7C0FCC0
:1025E00008B1FDF79FFF0794089409944FF4005039
:1025F0000A94CDE90B400003CDE90E400D941094F0
:1026000007A907481194FFF731FB08B1FDF78AFFCE
:102610000348FFF77DFC1AB010BD0000002C0140FC
:10262000040100200D4810B50B4901604FF4E13161
:102630004160002181600C22C160C0E90412816107
:10264000C16101624162FFF7D3FD002803D0BDE8FC
:102650001040FDF767BF10BD004C00405001002046
:10266000FEE7FEE7704700002DE9F05F0025074612
:1026700041F2883B4FF4967A48F6B809AA26154CE1
:102680004FF0820821E05846FEF7F4FB504600F078
:10269000EDFA4FF4FA60FEF7EDFB484600F01EF845
:1026A000206886632168C1F83C8040F6B830FEF7A8
:1026B000E1FB5046FDF726FF484600F01DF8206874
:1026C00086632168C1F83C806D1CBD42DBDBBDE840
:1026D000F09F0000040100207047000010B5054C79
:1026E000822122681164FEF7C5FB2168002008647E
:1026F00010BD00000401002010B5054CAA2122687D
:102700001164FEF7B7FB21680020086410BD0000CB
:1027100004010020FEF7F4BC30B5A5B0282116A8AE
:10272000FDF71FFE142120A8FDF71BFE5821684667
:10273000FDF717FE01201990102002251A90C00203
:10274000CDE91C504FF4C0100024CDE91E041695AD
:1027500016A8FEF797FF08B172B6FEE70F20CDE985
:1027600020054FF48060CDE92240022120A8249466
:10277000FEF792FE08B172B6FEE741F288100594AA
:1027800000904FF480700A9040010B900D946846C1
:10279000FEF738FD002801D072B6FEE725B030BD47
:1027A0000248016841F470010160704788ED00E063
:1027B0002DE9F04702682B4B2B4E2C4F2C4C2D4D06
:1027C0004FF0804A984209D0504507D0B04205D01A
:1027D000B84203D0A04201D0A84204D122F0700C2C
:1027E0004A6842EA0C02DFF890C0DFF89080DFF818
:1027F000909098420FD050450DD0B0420BD0B842C7
:1028000009D0A04207D0604505D0404503D04845D7
:1028100001D0A84203D122F44076CA6832434E69FF
:1028200022F08002324302608A68C2620A688262D1
:10283000984209D0A04207D0604505D0404503D05A
:10284000484501D0A84201D10969016301214161D4
:102850000169C90703D0016921F001010161BDE8E7
:10286000F0870000002C01400004004000080040F8
:10287000003401400050014000400140004401404C
:102880000048014010B501F01F030121046A99407E
:102890008C430462016A9A401143016210BD10B575
:1028A000846842EA032224F47F440A43224382607C
:1028B00010BD826822F070020A4342F00701816075
:1028C000704700002DE9F047056A026A22F0010214
:1028D0000262436882691F4C25F0020522400C68A1
:1028E00022F0030214438A681C4E2A431A4D1C4FDF
:1028F000DFF870C0DFF87090DFF870A0A84209D050
:10290000B04207D0B84205D0604503D0484501D059
:10291000504506D122F00808CA6842EA080222F0AF
:102920000402A84209D0B04207D0B84205D06045A1
:1029300003D0484501D0504505D14D6923F440737B
:102940001D438B692B434360846149684163026284
:10295000BDE8F0878FFFFEFF002C014000340140EE
:102960000040014000440140004801400050014047
:10297000F0B5056A026A22F01002026242688369B9
:102980001C4C1E4E23400C6823F4407343EA04247D
:1029900025F020038D681A4F43EA0513164DA8420F
:1029A00003D0B04201D0B84207D1D1F80CC023F017
:1029B000800343EA0C1323F04003A8420CD0B0423A
:1029C0000AD0104DA84207D00F4DA84204D00F4D99
:1029D000A84201D0B84207D14D6922F4406242EAD0
:1029E00085028D6942EA850242608461496881639B
:1029F0000362F0BDFF8FFFFE002C01400034014058
:102A000000500140004001400044014000480140A6
:102A1000F0B5056A026A22F4807202624368C269F4
:102A20001C4C1E4E22400C6822F00302144325F475
:102A300000728D681A4F42EA0522174DA84203D052
:102A4000B04201D0B84207D1D1F80CC022F40062E4
:102A500042EA0C2222F48062A8420CD0B0420AD092
:102A6000104DA84207D0104DA84204D00F4DA842E7
:102A700001D0B84207D14D6923F4405343EA05130E
:102A80008D6943EA05134360C4614968C16302620A
:102A9000F0BD00008FFFFEFF002C0140003401401C
:102AA0000050014000400140004401400048014006
:102AB00030B5046A026A22F4805202624268C36935
:102AC000144D24F400542B400D6823F4407343EA62
:102AD00005238D6844EA05340F4DA8420ED00F4DF2
:102AE000A8420BD00E4DA84208D00E4DA84205D0EA
:102AF0000D4DA84202D00D4DA84204D14D6922F4DB
:102B0000804242EA85124260C361496801640462FE
:102B100030BD0000FF8FFFFE002C0140003401405B
:102B20000040014000440140004801400050014085
:102B300030B5056A026A22F4803202624268436D4F
:102B4000124C23400C681C4325F400330D8943EAE2
:102B500005430F4DA8420ED00E4DA8420BD00E4D8E
:102B6000A84208D00D4DA84205D00D4DA84202D074
:102B70000C4DA84204D14D6922F4803242EA05226C
:102B80004260446549688165036230BD8FFFFEFF86
:102B9000002C01400034014000400140004401404D
:102BA000004801400050014030B5046A026A22F436
:102BB000801202624268436D134D24F400142B40CE
:102BC0000D6843EA05230D8944EA05540F4DA842D8
:102BD0000ED00F4DA8420BD00E4DA84208D00E4D7E
:102BE000A84205D00D4DA84202D00D4DA84204D1F7
:102BF0004D6922F4802242EA852242604365496899
:102C0000C165046230BD0000FF8FFFFE002C014053
:102C100000340140004001400044014000480140B0
:102C20000050014010B5036A046A24F001040462F4
:102C3000846924F0F00444EA021423F00A020A43EF
:102C40008461026210BD10B5036A046A24F01004A6
:102C50000462846923F0A00324F4704444EA02323D
:102C600043EA01118261016210BD000010B5054CFC
:102C7000AA212268D163FEF7FDF821680020C8630D
:102C800010BD00000401002090F82410090706D5AB
:102C900001684A68436B22F400421A434A6090F884
:102CA0002410C90706D001684A68836A22F40032FA
:102CB0001A434A6090F82410890706D501684A68CB
:102CC000C36A22F480321A434A6090F824104907FC
:102CD00006D501684A68036B22F480221A434A60D1
:102CE00090F82410C90606D501688A68836B22F41F
:102CF00080521A438A6090F82410890606D501682C
:102D00008A68C36B22F400521A438A6090F8241038
:102D1000490611D501684A68036C22F480121A43EF
:102D20004A60016CB1F5801F06D101684A68436CA6
:102D300022F4C0021A434A6090F82410090606D50E
:102D400001684A68806C22F4002202434A6070479E
:102D50002DE9F84300260446C0F88460FEF7CAF95E
:102D60008046206800684FF0200500076FF07E471E
:102D700012D54346002229042046009700F046F968
:102D800050B1216851E8000F20F0800041E80002B6
:102D9000002AF6D1E56721E020680068400722D5C7
:102DA000434600224FF480012046009700F02EF9A0
:102DB000C8B1216851E8000F20F4907041E800028A
:102DC000002AF6D12068083050E8001F21F00101E8
:102DD00040E80012002AF5D1C4F8805084F87860E9
:102DE0000320BDE8F883E567C4F8805044F8606FBD
:102DF000666026760020F4E7016851E8002F22F48F
:102E0000907241E80023002BF6D10168083151E8A7
:102E1000002F22F0010241E80023002BF5D1016EC2
:102E2000012908D1026852E8001F21F0100142E890
:102E30000013002BF6D12021C0F88010002101667C
:102E40008166704770B5044680682169E26908436D
:102E5000616900251143084321680A68634B1A40E1
:102E600002430A6020684168E26821F4405111433E
:102E70004160A169206A084321688A6822F43062AF
:102E800002438A605A4A20685A4990420CD1086B22
:102E900010F0030006D001285FD002285FD003287D
:102EA00045D158E0012143E0534A90420DD1086BCF
:102EB00010F440304DD0B0F5803F4ED0B0F5003F1B
:102EC0004DD0B0F5403F32D145E04C4A90420DD153
:102ED000086B10F440203CD0B0F5802F3DD0B0F509
:102EE000002F3CD0B0F5402F21D134E0444A90422D
:102EF0000DD1086B10F440102BD0B0F5801F2CD0F2
:102F0000B0F5001F2BD0B0F5401F10D123E03D4A93
:102F100090420CD1086B10F440001AD0B0F5800F2D
:102F20001BD0B0F5000F1AD0B0F5400F13D0102110
:102F3000E3694FF40040344A4FF6EF7683422ED1D6
:102F4000092949D2DFE801F00D1013481548484817
:102F500018000021ECE70221EAE70421E8E7082154
:102F6000E6E7FEF73DFB06E0FEF752FB03E0104606
:102F700002E0FEF765FB80B34100606801EB5001A1
:102F8000B1FBF0F0A0F11001B14225D84FF6F0717D
:102F90000140C0F3420001432068C16021E00929DB
:102FA0001AD2DFE801F005080B190D1919191000E4
:102FB000FEF716FB06E0FEF72BFB03E0104602E0EF
:102FC000FEF73EFB48B1616800EB5100B0FBF1F049
:102FD000A0F11001B14201D9012502E0216880B2BF
:102FE000C8600020A066E066284670BDF369FFEF68
:102FF00000380140001002400044004000480040FA
:10300000004C00400050004000127A002DE9F047CB
:10301000994617460D4604464FF00008089E33E0D7
:10302000701C31D0FEF766F8A0EB0900B04218D84A
:10303000BEB120680168490726D5802D24D0402DD7
:1030400022D0C169C94309070DD40825056220466D
:10305000FFF7D2FEC4F8845084F878800120BDE8E0
:10306000F0870320FBE7C069C04300050CD421684A
:103070004FF4006008622046FFF7BEFE2020C4F82F
:10308000840084F87880ECE72068C06935EA0000A5
:1030900004D00020B842C3D00020E0E70120F9E7C7
:1030A000FEE70907090E002804DB00F1E02080F8A4
:1030B0000014704700F00F0000F1E02080F8141DAC
:1030C0007047000010B5FEF723F8FFF725FBFFF768
:1030D000ABF9FFF7F7F8FFF733F9FFF765F9FFF7FB
:1030E0001BFAFFF79FFA00211A48FEF7FDFF0421A3
:1030F0001848FEF7F9FF08211648FEF7F5FF0C21E6
:103100001448FEF7F1FF1448FDF70CFE1348FDF7D5
:1031100009FE1348FDF706FE00224FF40051114846
:10312000FDF7E2FF4FF496742046FDF7EBF92046D9
:10313000FFF79CFD41F28830FDF79CFE0548AA216F
:103140000268916300688221C1633320FFF78CFA23
:10315000002010BD040100201400002064000020A5
:10316000B4000020001000484FF04070E1EE100A5B
:10317000704702030405060708090A0B0C0D0E0F21
:1031800010100102030405060708090A0B0C0D0EB6
:103190000F100000000000000000010203040607F9
:1031A000080900000000010203040000CC310008FF
:1031B0000000002014000000D0010008E0310008E9
:1031C0001400002024080000EC01000800000000AA
:1031D00001000000100000000000000000127A0052
:040000050800019559
:00000001FF
